:020000040800F2
:10000000F838002019030008CF310008A13000089B
:10001000CD310008F11E0008D335000800000000B3
:10002000000000000000000000000000593300083C
:10003000F31E000800000000D13100085B33000807
:1000400033030008330300083303000833030008B8
:1000500033030008330300083303000833030008A8
:100060003303000833030008330300083303000898
:100070003303000833030008330300083303000888
:1000800033030008330300083303000800000000B6
:100090000000000000000000000000003303000822
:1000A0003303000833030008330300083303000858
:1000B0003303000833030008330300083303000848
:1000C0003303000833030008330300083303000838
:1000D0003303000833030008330300080000000066
:1000E0003303000833030008330300080000000056
:1000F00000000000000000000000000033030008C2
:100100000000000033030008330300083303000835
:1001100000000000000000000000000000000000DF
:1001200033030008330300083303000833030008D7
:100130003303000800000000000000000000000081
:100140000000000000000000000000003303000871
:1001500033030008330300083303000833030008A7
:100160003303000833030008000000000000000013
:10017000000000000000000000000000000000007F
:100180000000000033030008000000000000000031
:100190003303000800F002F800F094F80AA090E899
:1001A000000C82448344AAF10107DA4501D100F032
:1001B00089F8AFF2090EBAE80F0013F0010F18BF6B
:1001C000FB1A43F00103184730E5000050E500003A
:1001D000103A24BF78C878C1FAD8520724BF30C873
:1001E00030C144BF04680C60704700000023002445
:1001F00000250026103A28BF78C1FBD8520728BF37
:1002000030C148BF0B6070476E2900F08F827029A3
:1002100000F0D98366290EF0858165290EF0828170
:1002200067290EF07F8161290EF07E8103681B0A29
:1002300028BF41F08001692900F03C82642900F068
:100240003982752900F036826F2900F0668378299B
:1002500000F0A583E92900F00183E42900F0FE8283
:10026000F52900F0FB82EF2900F06383F82900F004
:10027000A4830368DB0928BF41F08001632901F0F2
:10028000FB80732901F00081E32901F00B81F32940
:1002900001F01081002070471FB50EF03EF900F00C
:1002A00002F901F059F90400002000210EF0A8F82D
:1002B000401C6060002000210EF08CF8E0601FBD43
:1002C00010B510BD01F01AF91146FFF7E5FF04F073
:1002D0005BF801F0F7F903B4FFF7F2FF03BC03F09A
:1002E000A8F900000B49D1F800C04A685CF8043B4B
:1002F0001068184442F8040B8C4528BFA1F1DC0CAF
:100300008A4228BFA1F1DC02C1F800C04A6020F097
:10031000004070479028002009488047094800475E
:10032000FEE7FEE7FEE7FEE7FEE7FEE7FEE7FEE7A5
:10033000FEE7FEE704480549054A064B7047000002
:10034000F533000895010008F8280020F83800204F
:10035000F8300020F8300020704753EA020C00F01B
:1003600069802DE9F04B4FF00006002B1FBFB3FA58
:1003700083F503FA05F424FA05F65E4012BF16432E
:10038000B2FA82F502FA05F4C5F120051EBF22FA81
:1003900005FC44EA0C04203556EA044C4FEA1444A8
:1003A00018BF641C4FF000084FF00009904271EB39
:1003B000030C39D3002919BFB1FA81F701FA07F606
:1003C000B0FA80F700FA07F6C7F120071EBF20FA3F
:1003D00007FC46EA0C062037B6FBF4FCA7EB050742
:1003E000103F07F01F0BCBF120060CFA0BFB2CFA89
:1003F00006F644BFB3460026202FA4BF5E464FF04A
:10040000000B5BEA060C08BF4FF0010B19EB0B0960
:10041000ABFB027C48EB0608C01B06FB02CC0BFBC7
:1004200003CC71EB0C01C1E70B460246414648463E
:10043000BDE8F08B13B54FF000004FF00001AFF3B3
:100440000080BDE81C4070477CB51D4616460C0078
:10045000009001D02044401E074B7B442A46694649
:100460000190304600F07BF905461CB1002069463A
:1004700000F088F928467CBD310300000B4910B517
:10048000A1F17C020A4CC2E93712372106E000EBE9
:10049000104342F82130074B00FB03400B1EA1F133
:1004A0000101F4DC10BD0120E8E700003028002045
:1004B000E119D666CD0D0100032A40F2308010F01C
:1004C000030C00F0158011F8013BBCF1020F6244EF
:1004D00098BF11F801CB00F8013B38BF11F8013B80
:1004E000A2F1040298BF00F801CB38BF00F8013B2D
:1004F00011F0030300F03683083AC0F0088051F889
:10050000043B083A51F804CBA0E80810F5E7121DA7
:100510005CBF51F8043B40F8043BAFF30080D207C6
:1005200024BF11F8013B11F801CB48BF11F8012B92
:1005300024BF00F8013B00F801CB48BF00F8012BB5
:1005400070474FF0000200B5134694469646203996
:1005500022BFA0E80C50A0E80C50B1F12001BFF47C
:10056000F7AF090728BFA0E80C5048BF0CC05DF8E2
:1005700004EB890028BF40F8042B08BF704748BF30
:1005800020F8022B11F0804F18BF00F8012B7047A4
:1005900010B5044610F0030F08BF11F0030F40F030
:1005A00015804FF0013E121FC0F20E8051F8043B3F
:1005B000A3EB0E0C2CEA030C1CEACE1C08BF40F87F
:1005C000043BF0D0A1F1040102F10402521E08DB49
:1005D00011F8013B002B00F8013BF7D1114600F068
:1005E000F3FA204610BD704770477047704770B5EA
:1005F000044685690068C10601D5302600E0202642
:10060000C00707D070BDD4E9012130469047206A69
:10061000401C20626D1EF6D570BD70B5044685691C
:100620000078C00707D170BDD4E901212020904790
:10063000206A401C20626D1EF6D570BD09684A050F
:1006400001D540B27047C905FCD500B270470968B2
:100650004A0501D5C0B27047C905FCD580B27047C4
:1006600070B50C460546012A05D02878800600D5CD
:10067000EA69002302E0012305E05B1C934202D2F9
:10068000E05C0028F9D1A869E618C01AA861286AB8
:10069000184428622846FFF7AAFF04E0D5E90121A3
:1006A00014F8010B9047B442F8D32846FFF7B5FF82
:1006B00070BD00002DE9F041064600241068752940
:1006C000314616A510D0FFF7B9FF002802DA4042E4
:1006D00013A507E031688A0701D512A502E0490792
:1006E00004D511A5012401E0FFF7B1FF00210A2282
:1006F00006F1240709E0B0FBF2FCB0FBF2F302FBC9
:100700001C00303078541846491C0028F3D1234689
:100710002A463046BDE8F04100F0BDBA00000000B6
:100720002D0000002B00000020000000116802686E
:10073000006A530501D508700AE0D30501D5088089
:1007400006E0130603D5C217C1E9000200E0086005
:100750000120704701694A1C02610878704700B5A2
:100760008FB0CDE901310021059105497944CDE9EA
:1007700003101146684600F031F90FB000BD0000CB
:10078000E5FFFFFF0A6802F8010B0A607047D1E934
:1007900000239A4202D2531C0B6010707047000075
:1007A0002DE9FF5F15468A460446DFF8AC80F84421
:1007B0000027D8E900103E46CDE9001010E03AF8D5
:1007C00016106A4602A800F079FE411C07D0217875
:1007D000890603D5E269391891420DD80744761C81
:1007E0002078800602D5E069B84205DDAE42E6DB3E
:1007F0003AF816000028E2D1A069C01BA06120468B
:10080000FFF7F5FED8E90010CDE90010002017E051
:100810003AF818106A4602A800F050FEB0F1FF3F07
:1008200081460BD000250DF1080B05E0D4E901212C
:100830001BF8050090476D1C4D45F7D308F10100EA
:10084000B0428046E4DB206A384420622046FFF74D
:10085000E4FEBDE8FF9F0000AADD00002DE9F041A5
:100860008046D21D22F007020025D2E90002F529B8
:1008700015A614D0011E72F1000106DA0023D0EB98
:10088000030063EB020211A608E0D8F800108B0702
:1008900001D50FA602E0490701D50EA60125114694
:1008A000002408F1240704E000F0B0F930323A5592
:1008B000641C50EA0102F7D12B46324621464046DD
:1008C000BDE8F04100F0E7B9000000002D00000095
:1008D0002B0000002000000030B4002100F12404AF
:1008E00008E002F00705D208303542EA4372DB081F
:1008F0006554491C52EA0305F3D10468002310A291
:10090000250707D5A40600D421B1C46901230DA28F
:10091000641EC46130BC00F0BEB910B50446214667
:100920001068FFF794FE02462046BDE81040002301
:10093000D2E7D21D22F00701D1E90023CCE7000065
:100940000000000030000000F0B40D4601880905E9
:1009500002D5214C7C4402E01F4C7C440E34002123
:1009600000F1240608E002F00F071209E75D42EAF1
:1009700003721B097754491C52EA0307F3D102782A
:100980000023120704D5702D06D009B102231134BB
:100990002246F0BC00F07FB901231034F8E770B5AF
:1009A00004460D4621461068FFF751FE02462946CF
:1009B0002046BDE870400023C6E7D21D22F00703A1
:1009C000D3E90023C0E70368126843F02003036003
:1009D0000823C3610023B7E70CDC00002DE9F05FBA
:1009E000894604464FF0000ADFF874B1FB44C0F8B2
:1009F00020A02046E1688847002874D0252806D02A
:100A0000D4E901219047206A401C2062F1E70026CA
:100A10005F462046E16888472028054607DB312DE0
:100A200005D2781910F8200C08B10643F1E7B00799
:100A300001D526F00406C4F81CA00027C4F818A0AD
:100A40002A2D09D0284602F0EDFD38B304EB8708C3
:100A5000303DC8F8185019E059F8041B204604EB43
:100A600087029161E1688847012F054618D1E06946
:100A7000002820DA26F020061DE0D8F8180000EB48
:100A8000800005EB40003038C8F818002046E168C7
:100A90008847054602F0C6FD0028EED1012F0AD096
:100AA0002E2D08D12046E16888477F1C0546022F7D
:100AB00046F02006C4DBA069002803DA404246F075
:100AC0000106A061F00701D026F010066C2D0BD0B6
:100AD000682D09D04C2D39D06A2D35D0742D35D0E4
:100AE0007A2D33D016E038E0E1682F46204688475B
:100AF000B842054609D16C2F26D04FF48060E168DA
:100B0000064320468847054604E06C2F1AD04FF470
:100B1000807006430DB3A5F14100192802D8203595
:100B200046F400664A462946204626604E46FFF7B0
:100B30006BFB80B101280BD0F61D26F0070000F1F9
:100B4000080956E74020E4E78020D8E70020D6E7F0
:100B500006F104094DE7284652E7206ABDE8F09FF8
:100B60009CDB000010B5203AC0F00B80B1E81850B3
:100B7000203AA0E81850B1E81850A0E81850BFF487
:100B8000F5AF5FEA027C24BFB1E81850A0E8185026
:100B900044BF18C918C0BDE810405FEA827C24BF7A
:100BA00051F8043B40F8043B08BF7047D20728BF08
:100BB00031F8023B48BF11F8012B28BF20F8023B57
:100BC00048BF00F8012B70474FF000020429C0F025
:100BD000128010F0030C3FF4B6ACCCF1040CBCF165
:100BE000020F18BF00F8012BA8BF20F8022BA1EBC1
:100BF0000C01FFF7A8BC5FEAC17C24BF00F8012B01
:100C000000F8012B48BF00F8012B704730B5B0F158
:100C10000A024FEA900E71F100034EEA817EB0EBBA
:100C20000E0061EB91014FEA101E4EEA017E10EBBF
:100C30000E0041EB11114FEA102E4EEA016E10EB3F
:100C40000E0041EB11214FEA104E4EEA014E10EB1F
:100C50000E0041EB1141401841F100014FEAD00074
:100C600040EA41704FEAD10110EB80054FEA810460
:100C700044EA907444EB01046D1944EB0404521BE4
:100C8000A3414FF0000348BF0A3200D530BD401CDD
:100C900041F1000130BD2DE9F0470D4699469246DD
:100CA000044600F124080168880604D5E06921F0B3
:100CB0001001216000E00120A84201DD471B00E097
:100CC0000027A1697A1902EB0900081AA0612078AF
:100CD000C00602D42046FFF78AFC002608E0D4E9CB
:100CE00001211AF806009047206A401C761C2062F9
:100CF0004E45F4DB2078C0060AD52046FFF777FC86
:100D000006E0D4E9012130209047206A401C20628F
:100D1000381EA7F10107F4DC07E0D4E9012118F837
:100D200005009047206A401C2062281EA5F101059D
:100D3000F3DC2046FFF771FC2078000602D5022084
:100D4000BDE8F0870120FBE770472DE9FF4F0C4617
:100D50001E464FF0FF378BB0D2E90001DDF860800E
:100D60000A908A46C1F30A5505B93D460021084656
:100D70004FF00000BAF1000F00F4400005DA00EB7C
:100D800080004FF4400101EA50004FEA9059B9F158
:100D9000010F00DDB9460A9850EA4A000ED044F629
:100DA0001050A5F2FF3545432F14B8F1000F1ED0A7
:100DB0007542291E1EDDC9F100021CE0B8F1010FC9
:100DC0004FF0000001D0302103E0F24305E0215450
:100DD000401CB042FBDB30460022002121540B991D
:100DE000C1F80880C1E900200FB0BDE8F08FBD1B3D
:100DF0006D1CDEE74A4600DA694206A800F0F0FB07
:100E000006AB93E8070003AB83E8070050460A9956
:100E100000F0A6FC8DE80700A0F500501F380090F8
:100E20000398002D0ADD42F21F014A4608440023C0
:100E300003A90390684600F00FFF09E0A0F50050F9
:100E40004A461F38002303A90390684600F019FFA3
:100E50008DE807000004000C03D04FF0FF3041087C
:100E600000E01046B8F1000F03D0002200921546B2
:100E70001EE0751E05D4FFF7C9FE303262556D1EA7
:100E8000F9D5B3460122084302D000227F1C04E0BA
:100E90002078302801D100227F1E002A099784D0B3
:100EA0001DE0112D07DAFFF7B1FE303262556D1CDF
:100EB00050EA0102F5D1084302D00098C8B10EE013
:100EC0000021681E05E0235C625C63542254401ECE
:100ED000491C8142F7DBAB46A81B401E099000204D
:100EE00004F80B000B98099AC0F80880C0E9002BA1
:100EF0007AE711264FF0000857E72DE9F04F8846B2
:100F00000446D21D22F0070191B0D1E90001CDE9DC
:100F10000A0102F05FFB02460B98C00F01D02D20A2
:100F200007E02068810701D52B2002E0202101EA9B
:100F3000C000032A099001D0072A05DB0346414679
:100F4000204600F00DFB0BE12078800601D5E0691A
:100F500000E00620B8F1650F814606D0B8F1660FB3
:100F600018D0B8F1670F70D131E00020B9F1110F3E
:100F7000009001DB112301E009F101030AAA01A994
:100F80000CA8FFF7E2FEDDE90C70002609F101056F
:100F9000834647E001204B4600904FF000470AAAE5
:100FA00001A90CA8FFF7D1FEDDE90DB00C995D4653
:100FB000002610B909F101000D18B9EB050003D4A2
:100FC000C0F1FF3609F10105A5EB09002BE0B9F1ED
:100FD000010F01DA4FF001090020B9F1110F009063
:100FE000484601DD112300E003460AAA01A90CA826
:100FF000FFF7ABFEDDE90C704D46002683462078F6
:1010000000070AD4AB4500DA5D4601A8012D04DDD6
:10101000411911F8011C302907D04F4502DA17F1A8
:10102000040F04DA012082460FE06D1EEEE7002F68
:1010300002DCED1B3E4403E0781CA84200DD7D1C71
:10104000B81B00F1010A4FF000472078000703D4D5
:10105000AA4501DB4FF0FF3A0021B7F1004F0DF137
:1010600043088DF8431024D002202B23002F01DAEF
:101070007F422D230A21021EA0F1010000DC5FB196
:1010800097FBF1FC97FBF1F201FB1C7C17460CF17E
:10109000300C08F801CDEEE7A8F1010003702188BB
:1010A000090501D5452100E06521A0F1010800F8FE
:1010B000011C09980FA9A1EB0807FF1D00B1012031
:1010C000411901EBEA70A1693844081A401EA06179
:1010D0002078C00602D42046FFF789FA099828B183
:1010E000D4E901219047206A401C20622078C00684
:1010F00022D52046FFF77BFA1EE0002E04DBB34525
:1011000002DD01A8805D00E03020D4E90121904794
:10111000206A401C2062761CAAF101005FEA000AE6
:101120000AD100F019FAC0680168405CD4E90121D5
:101130009047206A401C2062281EA5F10105DCDCD6
:1011400007E0D4E9012118F8010B9047206A401C00
:101150002062381EA7F10107F3DC2046FFF75DFA95
:10116000032011B041E600002DE9F04F04460D4682
:10117000D21D22F0070089B0D0E9009748463946D1
:1011800002F028FA0246F80F01D02D2307E020686C
:10119000810701D52B2302E0202101EAC0038DF84D
:1011A00020300BB1012000E00020032A824601D04C
:1011B000072A04DB2946204600F0D2F93FE12078D7
:1011C000800601D40D2500E0E569C7F30A560D2D10
:1011D00049DA00214FEA175B08464FF00000002F64
:1011E00000F4400007DA00EB80004FF4400100EB10
:1011F000D07001EA60008115012901DD4FF0FF3157
:1012000000224FEA850CBCF1180F06D31346ACF14F
:1012100018004FF08052C24003E04FF4801323FACD
:101220000CF30CF10C0CBCF1200F04D3ACF1200C2E
:1012300009FA0CF001E007FA0CF000294FF0004821
:1012400001DD18B90FE00ED140450CD319EB0209AE
:101250005F4121B9404502D19F4329EA0209BBEB16
:10126000175F00D0761C2088000502D57B487844A3
:1012700002E07A487844193808AA302302F80A3084
:10128000037C0AF10101002E0AF1020A53546A4656
:1012900002DC4FF0300101E04FF031014FF0010866
:1012A0008DF8001002D0A6F2FF3603E059EA47019C
:1012B00000D06B4E002D02DC2178090704D54FF0D9
:1012C00002082E218DF80110C44600210BE0C7F35F
:1012D00003433F01C35C491C6D1E02F80830052919
:1012E00008F1010801DA002DF1DC00210CE000EB2F
:1012F0001973491C1B786D1E082902F808304FEA43
:10130000091908F1010801DA002DF0DC21688B06CB
:1013100002D516E0A8F10108E04505DD02EB08035F
:1013200013F8013C302BF5D0B8F1000F09DD02EBCA
:10133000080313F8013C2E2B03D1090701D4A8F1AF
:101340000108002D05DD3E2102F808106D1E08F190
:101350000108407C002E02F8080008F1010804DAB8
:101360002D20764202F8080002E02B2002F8080047
:101370000A214FF47A70864208F101080BDB96FBD4
:10138000F0F3303302F8083096FBF0F308F101086F
:1013900000FB136601E0642E0CDB642096FBF0F387
:1013A000303302F8083096FBF0F308F1010800FB37
:1013B000136601E00A2E06DB96FBF1F0303002F8EE
:1013C000080008F1010896FBF1F001FB10603030D5
:1013D00002F80800A16908F1010808EB050202EB18
:1013E0000A00081AA0612078C00602D42046FFF740
:1013F000FEF8216A08AE01EB0A00206204E0D4E99D
:10140000012116F8010B9047BAF1010AF7D22078B2
:10141000C00602D52046FFF7EAF86E4609E016F846
:10142000010B3E280FD0D4E901219047206A401CCF
:101430002062B8F10108F2D22046FFF7EEF809B0B9
:101440000320BDE8F08F206A2844206203E0D4E93D
:101450000121302090476D1EEBD3F8E73ED300000A
:1014600002FCFFFF10B5436913B1AFF3008001E048
:10147000FFF7F6F8012010BD127800F124010A7080
:1014800000224A700122EDE711684FF0FF32E9E7D0
:1014900010B5436913B1AFF3008001E0FFF780F9A5
:1014A000012010BD128800F1240182840022C28430
:1014B0000122EDE711684FF0FF32E9E770B51646FB
:1014C0000C46054600F040F8036893F80101012836
:1014D00006D0FF2C0FD8185D68B101202C7070BDAC
:1014E000D3F807013246214603F207130344284686
:1014F000BDE8704018474FF0FF3070BD754600F0F2
:10150000EBF8AE4605006946534620F007008546D5
:1015100018B020B5FEF70EFFBDE820404FF00006E2
:101520004FF000074FF000084FF0000B21F00701CB
:10153000AC46ACE8C009ACE8C009ACE8C009ACE80E
:10154000C0098D467047000010B500F005F8001D79
:1015500010BD00BFADCE000000487047B828002085
:101560002DE9F0411F46044603260168072A01F4CD
:10157000006004DB08B116A505E016A503E008B17C
:1015800015A500E015A521F010002060A069C01E7F
:10159000A0610FB1401EA0612046FFF728F84FB1AF
:1015A000D4E9012138469047206A401C2062C01CC3
:1015B000206206E0206AFAE7D4E9012115F8010B60
:1015C0009047761EF8D22046FFF727F8BDE8F08155
:1015D0004E414E006E616E00494E4600696E6600D7
:1015E0002DE9F047814616468AB0354878440DC843
:1015F0008DE80D0032487844801C03AC0DC884E8A7
:101600000D0041F69B300844372190FBF1F290FB2E
:10161000F1F5A5F1800501FB12041B3C02D56442E3
:10162000012000E00020DFF898A080460027FA445F
:10163000AAF1BE0A0EE0E0070AD03246684607EB80
:10164000470101230AEB810100F01BFB8DE8070035
:1016500064107F1C002CEED1194F7F44AE3F19E07F
:10166000E80715D007EB04100DF1180A90E80E00FA
:101670008AE80E00C068F04201D1981908903246FD
:10168000012306A903A800F0FCFA03AB83E80700D6
:101690006D10641C002DE3D14FF001033246694602
:1016A000B8F1000F03A802D000F0D6FA01E000F074
:1016B000E8FAC9E90001C9F808200AB0BDE8F087D6
:1016C00050D0000010B50446AFF300802046BDE8BE
:1016D0001040FEF700BE0000004870479828002028
:1016E0004FF0013C50F8042B51F8043B9A4221D1B1
:1016F000A2EB0C03934313EACC1317D150F8042B3D
:1017000051F8043B9A4215D1A2EB0C03934313EA20
:10171000CC130BD150F8042B51F8043B9A4209D159
:10172000A2EB0C03934313EACC13DBD04FF0000081
:10173000704700BFD01A01BAB1FA81F101F0180167
:1017400022FA01F0CB40C1F12001DBB2C0B2C01AD5
:101750002CFA01F3D11A914311EAC311E6D1704773
:101760005FEA400C08BF91F0000F4FEA8C234FEA6C
:10177000C12243EA51514FEA1C5018BF00F5F04016
:101780004FEA300018BF41F000415FEA6C5C00F0A6
:101790002980BCF1FF3F08BF40F080407047130C28
:1017A00006BF12044FF0100C4FF0000C130E04BFD4
:1017B00012020CF1080C130F04BF12010CF1040CFF
:1017C000930F04BF92000CF1020CD30F04BF520020
:1017D0000CF1010C11464FF00002A0F11F00A0EB2C
:1017E0000C00704711F0004F08BF704731F0004106
:1017F0003FF4D5AF0B0C06BF09044FF0100C4FF0AF
:10180000000C0B0E04BF09020CF1080C0B0F04BFF7
:1018100009010CF1040C8B0F04BF89000CF1020CC0
:10182000CB0F04BF49000CF1010CCCF12003A0EB5D
:101830000C0022FA03F302FA0CF241EA030100F170
:101840000100704720F07F4C80EA030023F07F47BF
:10185000ACEB070303F57C5300F0004003F1FF03FA
:101860002DE980494FEA154B09B44FEA144325EAA4
:101870000B4E24EA03480FF2042606EB132749080F
:101880003E785FEA320203FB0667C7F5000707FBF5
:1018900006F64FEA54374FEAD64606F1020607FB32
:1018A000066CCCF1005C4FEA1C472CEA074C07FBA6
:1018B00006F40CFB06F504EB15464FEA961634BF0A
:1018C00000204FF000404FEAD13706FB07FC4FEAFB
:1018D0001C4C0CFB0BF7D21B03FB0CF761EB070155
:1018E0000CFB0EF7B0EB074072EB17420CFB08F74E
:1018F00034BFA2EB0742B2EB074261EB17414FEA5C
:101900000C444FEA910706FB07FC4FEA1C4C0CFB0A
:101910000BF7B0EBC74072EB573203FB0CF734BF49
:10192000A2EBC742B2EBC74261EB57310CFB0EF79B
:10193000B0EBC70072EB57720CFB08F734BFA2EB99
:10194000C702B2EBC70261EB5771039F4FEA816197
:1019500041EA921104EBCC044FEAD1374FEA82629C
:1019600006FB07FC42EA90124FEA80604FEA1C4CEB
:101970000CFB0BF7D21B03FB0CF761EB07010CFB15
:101980000EF7B0EB074072EB17420CFB08F734BFC1
:10199000A2EB0742B2EB074261EB17414FEA8C55CD
:1019A0004FEA910704EB9C2406FB07FC4FEA1C4C12
:1019B0000CFB0BF7B0EBC74072EB573203FB0CF795
:1019C00034BFA2EBC742B2EBC74261EB57310CFB0D
:1019D0000EF7B0EBC70072EB57720CFB08F734BF81
:1019E000A2EBC702B2EBC70261EB577115EB4C25B6
:1019F0004FEA816141EA92114FEA82624FEAD137A0
:101A000042EA901206FB07FC44F100044FEA8060B2
:101A10004FEA1C4C0CFB0BF7D21B03FB0CF761EBE2
:101A200007010CFB0EF7B0EB074072EB17420CFB03
:101A300008F734BFA2EB0742B2EB074261EB174154
:101A400015EB1C154FEA813141EA92414FEA82328F
:101A500042EA90424FEA80304FEA0C7644F10004AB
:101A600048EA03434EEA0B484FF0000EB2EB080C75
:101A700071EB030724BF624639464EEB0E0E4FF062
:101A8000000B0018524149414BEB0B0BB2EB080C19
:101A900071EB03077BF1000B24BF624639464EEB26
:101AA0000E0E4FF0000B0018524149414BEB0B0B4F
:101AB000B2EB080C71EB03077BF1000B24BF62460D
:101AC00039464EEB0E0E51EA020718BF46F00106EA
:101AD00016EB0E7655F1000254F1000103D5BDE876
:101AE0008901BDE80088BDE88901BDE80048B61954
:101AF000524141EB0101A3F10103704780807F7ED9
:101B00007D7C7B7A79787776767574737271717073
:101B10006F6E6E6D6C6C6B6A6A6968686766666525
:101B20006464636362616160605F5F5E5E5D5D5CB3
:101B30005C5B5B5A5A595958585757565655555524
:101B40005454535352525251515050504F4F4F4E84
:101B50004E4D4D4D4C4C4C4B4B4B4A4A4A494949D2
:101B60004848484747474746464645454544444414
:101B7000444343434342424242414141002B9C463D
:101B800030D477002BD01CB54FEA370703B44FF0A1
:101B900010004FF01001BAF1000F06D0BCF1000F99
:101BA000DCBF40F0080040F008014FF000000FBC1F
:101BB000BDE810400BF1010BBBF1010F08BF5FEA5C
:101BC000170722BF12F1010211F101014FF000418C
:101BD00043F1000300F0004043EA00007047F9D3EE
:101BE0005708D0E746EA064613F1400F4FEA16467B
:101BF0001FDD13F1200FDFBF16430A4600212033FB
:101C00005B42BED0C3F1200746EA064602FA07F758
:101C10004FEA164646EA0706C3F1200722FA03F206
:101C200001FA07F721FA03F14FF0000342EA070235
:101C3000A7E746EA020646EA06464FEA164646EA9D
:101C40000106BCBF46EA0646360C4FF000034FF0D3
:101C500000024FF0000194E72DE9804C9A4693462C
:101C600070B491E8380007C831EA400C48BF34EA44
:101C7000430C03D5FFF7E6FDFFF780FFF0BCBDE89E
:101C8000008C2DE9804C9A46934670B491E8380058
:101C900007C810F0804F08BF13F0804F03D100F049
:101CA00005F8FFF76BFFF0BCBDE8008C20F07F4724
:101CB00080EA030023F07F4C07EB0C03A3F57C5371
:101CC00000F00040A3F1FE0392F0000F00F0B3809B
:101CD00095F0000F00F077802DE901494FEA11409F
:101CE0004FEA144621EA004800FB06FC24EA0647B6
:101CF00008FB06F607FB08F800FB07F718EB064899
:101D00004CEB164C4FEA124B18EB07484FEA1546BE
:101D10004CEB174022EA0B4E0BFB06FC25EA06476C
:101D20000EFB06F607FB0EFE0BFB07F71EEB064E3F
:101D30004CEB164C4FF000061EEB074E4CEB174BCE
:101D400018EB0B0840F1000018EB0E0B58EB0008E5
:101D500040F100008F1A4FF000013CBFC943661BE1
:101D600014BFB5EB040C00213CBFC943F61B4FEA7E
:101D700017444EEA8E0E27EA04454FEA1C4704FB3F
:101D800007622CEA074C05FB07F70CFB05F604FB82
:101D90000CFC16EB074642EB174216EB0C4642EBE7
:101DA0001C421BEB060658EB0202414146EA9E0626
:101DB00001D5BDE80189B619524141EB0101A3F1FA
:101DC0000103BDE801894FEA14454FEA114724EAAF
:101DD000054621EA074C05FB07F406FB07F70CFB59
:101DE00006F105FB0CFC11EB074144EB17444FEAED
:101DF000124711EB0C4144EB1C4422EA074C05FB53
:101E000007F206FB07F70CFB06F605FB0CFC16EBCE
:101E1000074642EB174216EB0C4642EB1C456A188C
:101E200054F1000148BF7047B619524141EB01011E
:101E3000A3F10103704795F0000F37D04FEA11422C
:101E40004FEA144721EA024624EA074C02FB07F155
:101E500006FB07F70CFB06F402FB0CFC14EB074433
:101E600041EB17414FEA154714EB0C4441EB1C4181
:101E700025EA074C02FB07F506FB07F70CFB06F605
:101E800002FB0CFC16EB074645EB174516EB0C4620
:101E900045EB1C42121951F1000148BF7047B619B9
:101EA000524141EB0101A3F1010370474FEA144590
:101EB0004FEA114724EA054621EA074C05FB07F1E2
:101EC00006FB07F70CFB06F24FF0000605FB0CFCC7
:101ED00012EB074241EB174112EB0C4251EB1C4154
:101EE00048BF7047921841EB0101A3F1010370470D
:101EF000FEE7704772B6FEE770B5044600F09AF947
:101F00000546601C02D004480078044400F092F9B1
:101F1000401BA042FAD370BD040000202DE9F04F11
:101F20000022DFF808B101264FF00F0906FA02F48B
:101F300001EA0403A34274D122F003075F44D7F8F7
:101F4000088895074FEA157C09FA0CFA0AEA080591
:101F5000DFF8DC80404502D14FF000081DE0DFF8DB
:101F6000D480404502D14FF0010816E0DFF8C88068
:101F7000404502D14FF002080FE0DFF8C080404535
:101F800002D14FF0030808E0DFF8B480404502D1E9
:101F90004FF0040801E04FF0070808FA0CF8A845D4
:101FA00022D1284DD5F800C02CEA030CC5F800C09A
:101FB0002D1DD5F800C02CEA030CC5F800C0214D3A
:101FC0000C35D5F800C02CEA030CC5F800C02D1F55
:101FD000D5F800C02CEA030CC5F800C0D7F80858A3
:101FE00025EA0A05C7F80858056857000323BB40CF
:101FF0009D430560D50800EB8505D5F820C057073F
:102000004FEAD76809FA08F72CEA070CC5F820C090
:10201000C5689D43C5604568A543456084689C4389
:102020008460521C102A81D3BDE8F08F003001403B
:10203000000002400004024000080240000C024080
:1020400000100240003C01402DE9F84FDFF8B8A134
:102050000022012403254FF00F090AF1040BAAF115
:10206000040E00BF0B6804FA02F63340B34273D18A
:102070000F7907F00307012F01D0022F16D18768CF
:102080004FEA420805FA08FC27EA0C07D1F80CC011
:102090000CFA08FC4CEA070CC0F808C04768B743C4
:1020A0000E79C6F3001696403E4346600E79F6431D
:1020B000B6070DD0C768560005FA06FC27EA0C07DC
:1020C000D1F808C00CFA06FC4CEA070CC0F80CC0AA
:1020D0000E7906F00306022E10D1D60800EB860812
:1020E000D8F8206057074FEAD76C09FA0CF7BE43BF
:1020F0000F6907FA0CF73743C8F8207006684FEAF3
:10210000420C05FA0CF7BE430F7907F0030707FAF4
:102110000CF7374307604E6816F4403F6DD03B4ED6
:10212000376847F480473760366822F0030706F4C3
:1021300080460096364E07EB060CDCF808689707D9
:102140003F0F09FA07F826EA0806DFF8C88040457D
:1021500003D14FF000081EE04FE0DFF8BC8040459F
:1021600002D14FF0010816E0DFF8B080404502D1FF
:102170004FF002080FE0DFF8A880404502D14FF091
:10218000030808E0DFF89C80404502D14FF00408C6
:1021900001E04FF0070808FA07F848EA0608CCF80B
:1021A0000888DAF800605746D1F804C09E435FEA19
:1021B000CC2C00D51E433E60DBF800605F46D1F8B2
:1021C00004C09E435FEA8C2C00D51E433E60DEF8BF
:1021D00000607746D1F804C09E435FEA8C3C00D58E
:1021E0001E433E60084F083F3E68D1F804C09E433E
:1021F0005FEACC3C00D51E433E60521C102AFFF41F
:1022000031AFBDE8F88F0000083C0140443802407F
:10221000003001400000024000040240000802407B
:10222000000C0240001002400AB1816170470904AD
:10223000FBE70000014880687047000004000020B0
:1022400002488168027811448160704704000020D0
:102250000B4810B5016841F400710160016841F458
:1022600080610160016841F480710160032000F029
:1022700061F8002000F006F800F024F8002010BDFE
:10228000003C024070B50D4D04464FF47A71287839
:10229000B1FBF0F00A490968B1FBF0F000F035FE3F
:1022A00048B9102C07D200222146501E00F022F817
:1022B00000206C6070BD012070BD00000400002093
:1022C000100000200A4808B5016841F4804101600F
:1022D000006800F4804000900548001F016841F04C
:1022E00080510160006800F08050009008BD00003F
:1022F00044380240F0B40E4B1B680C46C3F3022373
:10230000C3F10705042D00D90425191D072901D2A1
:10231000002300E0DB1E012606FA05F1491E2140DC
:1023200099409E40761E16403143F0BC01F06AB9D8
:102330000CED00E0064900F0070208684FF6FF03C5
:10234000184040EA0220034A10430860704700002A
:102350000CED00E00000FA052DE9F0470E460500FF
:1023600065D0DFF81481D8F80000F7B200F007005C
:10237000B04207D288F80070D8F8000000F00700DB
:10238000B04254D128683D4C810712D5400703D58F
:10239000206840F4E05020602878000703D52068CA
:1023A00040F4604020602068A96820F0F0000843F5
:1023B00020602878C0072DD0304968680839012886
:1023C00012D0022813D0032811D0096889070029E8
:1023D0002DDA216821F0030101432160FFF72AFF74
:1023E000814641F2883A0EE009688903EFE70968FF
:1023F0008901ECE7FFF71EFFA0EB0901514502D967
:102400000320BDE8F0872068696800F00C00B0EB9D
:10241000810FEFD1D8F80010404601F00701B1421A
:1024200007D90770006800F00700B04201D0012012
:10243000E7E72878400705D52068E96820F4E050F0
:10244000084320602878000706D52068296920F411
:10245000604040EAC100206000F03EF82168084A70
:10246000C1F30311515CC840064908600648006882
:10247000FFF708FF0020C4E7003C02400838024094
:102480002CE500081000002008000020014800682A
:1024900070470000100000200448054900680968E2
:1024A000044AC1F38221515CC840704710000020EB
:1024B000083802403CE500080448054900680968FE
:1024C000044AC1F34231515CC840704710000020FB
:1024D000083802403CE50008154810B5006810F0C7
:1024E0000C02144813D04110042A0FD0082A0ED130
:1024F0000F4C241F2268236802F03F025B0207D5BD
:102500002068C0F38810A0FB010106E0084610BD5A
:102510002168C1F38811A1FB00010023FDF71DFF15
:102520002168C1F30141491C4900B0FBF1F010BD25
:10253000083802400024F4002DE9F84F04006ED062
:102540002078DFF84C93C007A9F104054AD009F1BF
:1025500004000168C1F38101012908D00068C0F3BB
:10256000810002280AD1D9F80000400206D5286867
:10257000800337D560680028E1D033E06068B0F5AB
:10258000803F10D0B0F5A02F286810D020F4803004
:102590002860286820F4802028606068A8B1FFF7D0
:1025A00049FE06460DE0286840F48030F4E740F428
:1025B00080202860F7E700BFFFF73CFE801B6428FF
:1025C00073D828688003F7D50CE0FFF733FE064682
:1025D00005E000BFFFF72EFE801B6428F0D82868B6
:1025E0008003F7D42078DFF8AC8280074FF0000A30
:1025F0003ED5A748001D016811F00C0F08D00068F7
:10260000C0F3810002280BD1D9F80000400207D4A2
:102610002868800716D5E068012800D112E033E170
:10262000E068B8B10120C8F80000FFF703FE0646D5
:1026300005E000BFFFF7FEFD801B0228C0D8286818
:102640008007F7D52868216920F0F80040EAC1002A
:1026500028600DE0C8F800A0FFF7ECFD064604E096
:10266000FFF7E8FD801B02281FD828688007F7D4F1
:102670002078000722D5864F87486169703771B18D
:1026800001210160FFF7D6FD064604E0FFF7D2FD09
:10269000801B022809D838688007F7D50EE0C0F8FB
:1026A00000A0FFF7C7FD064605E082E0FFF7C2FD88
:1026B000801B02287DD838688007F7D4207840072F
:1026C00068D5DFF8CCB100270BF13C0BDBF800003C
:1026D000C0000BD4DBF8001041F08051CBF80010A3
:1026E000DBF80000012700F0805000906B4E30684E
:1026F000C00510D4306840F480703060FFF79AFD58
:10270000009005E0FFF796FD0099401A022850D886
:102710003068C005F6D55E4EA0686C3601280FD033
:102720000528306810D020F001003060306820F0BB
:1027300004003060A068B8B1FFF77CFD00900FE0A6
:10274000306840F00100F4E740F004003060F7E743
:10275000FFF770FD0099411A41F28830814266D836
:1027600030688007F4D50EE0FFF764FD009007E0C5
:10277000FFF760FD0099411A41F28830814256D836
:1027800030688007F4D42FB1DBF8001021F08051BD
:10279000CBF80010A069C8B33D49091D0968C1F311
:1027A000810102294AD00228504607D0C8F86000AB
:1027B00000E03CE0FFF73EFD04463BE04746C8F83A
:1027C0006000FFF737FD064605E000BFFFF732FD6A
:1027D000801B02282BD828688001F7D4D4E9070190
:1027E0000843A16A2E4A490802EB0141626A41EAA4
:1027F0008211084394F82C1040EA0161C9F80010D6
:1028000001203866FFF716FD044606E03EE000BFF3
:10281000FFF710FD001B022809D828688001F7D5B2
:1028200034E000BFFFF706FD001B022802D9032099
:10283000BDE8F88F28688001F4D427E00128F7D09C
:10284000D9F80000E26900F4800191421CD1226AAB
:1028500000F03F01914217D147F6C071626A014012
:10286000B1EB821F10D1A26A4FF0FF3300F4403168
:1028700003EB5202B1EB024F06D194F82C1000F09A
:102880007060B0EB016F01D00120D1E70020CFE7ED
:102890000438024000004742800E4742007000406A
:1028A0000000FFFF10B5040011D0022084F8510091
:1028B0002068016821F040010160204600F06AF8BC
:1028C0000020606584F8510084F8500010BD01209C
:1028D00010BD90F85100704770B5040009D0606ACF
:1028E000002540B125616561A56294F8510040B1B1
:1028F0000CE0012070BD6068B0F5827FF4D0E56126
:10290000F2E784F85050204600F062F8022084F884
:1029100051002068016821F040010160A0882189F0
:1029200000F4827001F404410843A18901F40061BC
:102930000843217C01F002010843217D01F00101DF
:102940000843218B01F400710843217F01F0380115
:10295000084394F8201001F080010843218D01F410
:102960000051084321680860A069042101EA104071
:1029700094F8241001F01001084321684860206891
:10298000C16921F40061C1616565012084F85100CD
:10299000002070BD10B50068094988420FD1094870
:1029A000016821F48041016004210748FFF7B6FA6D
:1029B000BDE810404FF420410448FFF7AFBA10BD06
:1029C0000038004040380240000802400004024045
:1029D000F0B587B0044614216846FDF7B2FD1C49E6
:1029E0002068884232D11B480024016841F48041AC
:1029F0000160006800F480400590164810380168B6
:102A000041F004010160016801F0040105910168D1
:102A100041F0020101600068022500F0020005900B
:102A20000420CDE9000502AA0326052782E8D0008C
:102A300069460948FFF708FB7803CDE9000502AABB
:102A4000694682E8D0000548FFF7FEFA07B0F0BDFE
:102A500000380040403802400008024000040240B4
:102A60002DE9F84F044690F851001D4616460F46D2
:102A7000012838D1002F77D0002E75D060684FF034
:102A80000408B0F5827F01D1A06810B3FFF7D2FB34
:102A9000824694F85000012825D04FF0010984F8AF
:102AA000509084F851804FF00008C4F85480A76318
:102AB000A687E687C4F83080A4F83480A4F836806E
:102AC000C4F84080C4F84480A068B0F5004F0CD032
:102AD00015E084F85180009313460A46204600F022
:102AE0001CF9BDE8F88F0220FBE72068016821F09F
:102AF000400101602068016821F480410160206884
:102B00000168490603D4016841F040010160E068B2
:102B1000C0B134E020688168C90709D0007BA16B8F
:102B20000870A06B401CA063E08F401EE08709E0A6
:102B3000FFF780FBA0EB0A00A84202D3681C01D07B
:102B400032E085B3E08F0028E4D11BE02068816883
:102B5000C9070AD0C068A16B0880A06B801CA06365
:102B6000E08F401EE0870AE01BE0FFF763FBA0EB6D
:102B70000A00A84202D3681C01D015E09DB1E08F85
:102B80000028E3D152462946204600F022FB08B136
:102B90002020606584F8519084F85080606D002892
:102BA0009FD001209DE7FFE784F8519084F8508082
:102BB000032096E72DE9F84F984616468A460446C4
:102BC000FFF738FB814694F8510001281ED1BAF175
:102BD000000F73D0002E71D094F85000012815D04A
:102BE000012784F85070032084F8510000256565A2
:102BF000C4F830A0A686E686A563A587E587656448
:102C00002564A068B0F5004F03D00CE00220BDE8B9
:102C1000F88F2068016821F0400101602068016898
:102C200041F48041016020680168490603D40168CD
:102C300041F040010160E068B0F5006F606803D0CA
:102C400048B3012E27D047E008B1012E1FD1206BD9
:102C500021680088C86006E020688168890709D576
:102C6000216B0988C160206B801C2063E08E401EB0
:102C7000E0860CE0FFF7DEFAA0EB0901414503D343
:102C8000B8F1FF3F03D035E0B8F1000F32D0E08E4D
:102C90000028E1D123E0206B21680078087306E06A
:102CA0002068816889070AD5216B09780173206B38
:102CB000401C2063E08E401EE0860DE02BE0FFF715
:102CC000B9FAA0EB0901414503D3B8F1FF3F03D0A6
:102CD00010E0B8F1000F0DD0E08E0028E0D14A4698
:102CE0004146204600F0A4FA08B120206065A068A3
:102CF00030B109E084F8517084F85050032086E721
:102D00002068C1688068009084F8517004F8505FB2
:102D100060680028F3D0012079E72DE9FF4F81B0EA
:102D20001D46934604464FF001090E9EFFF782FAB6
:102D3000074694F851006168012806D0B1F5827FFA
:102D40003CD1A168C9BB042838D10298002871D0B1
:102D5000BBF1000FFBD0002DF9D094F850000128F2
:102D60002CD04FF0010A84F850A094F851000428A8
:102D700002D0052084F851004FF00008C4F85480B8
:102D8000C4F838B0E587A58702992163E586A58652
:102D9000C4F84080C4F8448020680168490603D420
:102DA000016841F040010160E068B0F5006F6068C3
:102DB00008D0F0B3012D49D081E0FFE7022005B033
:102DC000BDE8F08F08B1012D39D1206B2168008852
:102DD000C860206B801C2063E08E401EE0862EE0E1
:102DE0002068816889070FD5E18E69B1B9F1010FBB
:102DF0000AD1216B0988C160206B801C2063E08EA2
:102E0000401EE0864FF0000920688168C9070CD099
:102E1000E18F51B1C068A16B0880A06B801CA063DA
:102E2000E08F401EE0874FF00109FFF703FAC01B57
:102E300001E00BE067E0B04201D3701C50D1E08E9E
:102E40000028CDD1E08F0028CAD13EE0206B216858
:102E500000780873206B401C2063E08E401EE086E3
:102E60002DE02068816889070FD5E18E69B1B9F13D
:102E7000010F0AD1216B09780173206B401C20637C
:102E8000E08E401EE0864FF0000920688168C90787
:102E90000CD0E18F51B1C068A16B0870A06B401CD1
:102EA000A063E08F401EE0874FF00109FFF7C2F9F1
:102EB000C01BB04202D3701C01D011E086B1E08E7D
:102EC0000028CED1E08F0028CBD13A4631462046AB
:102ED00000F0AEF950B12020606584F8508012E017
:102EE00084F851A084F85080032068E7A06818B9DE
:102EF0002068C1688068009084F851A084F85080F0
:102F0000606D0028F1D0012059E710B5401EB0F1E6
:102F1000807F01D3012010BD4FF0E02460610F21BC
:102F2000601700F06FFB0020A061072020610020E7
:102F300010BD70B5040004D094F84100002510B114
:102F400006E0012070BD84F84050204600F024F8CF
:102F5000242084F841002068C16821F40051C16038
:102F6000204600F077FA2068016921F49041016160
:102F70002068416921F02A0141612068C16841F45B
:102F80000051C1606564202084F8410084F842004B
:102F90006563002070BD000010B586B004461421A2
:102FA0006846FDF7CEFA1349206888421FD11248BF
:102FB0000021026842F400320260006800F4003030
:102FC00005900D481038026842F001020260006866
:102FD00000F0010005900C2000900220CDE90101D5
:102FE0000720CDE9031069460448FFF72DF806B025
:102FF00010BD000000440040403802400000024084
:103000002DE9F843044690F84100984616460D46CF
:10301000202802D00220BDE8F88385B17EB10020CF
:103020006064212084F84100FFF704F9A6848146FA
:10303000E684A0682027B0F5805F02D003E001207D
:10304000E9E7206910B12E4600250EE000260CE0CD
:103050008021204600F084FAA8B9C6B116F8010B09
:1030600021684860E08C401EE084E08C4B464FF0C5
:103070000002CDF800800028EAD14FF04001204640
:1030800000F06EFA40B184F841700320C3E735F8D0
:10309000020BC0F30800E3E784F841700020BAE7B0
:1030A000FEE700002DE9F04186B014216846FDF7E7
:1030B00048FA23480024016841F08001016001685A
:1030C00001F080010591016841F00401016001688F
:1030D00001F004010591016841F0010101600168FE
:1030E00001F001010591016841F0020101600068F1
:1030F000144F00F002000590002202213846FFF72D
:1031000093F8DFF844804FF4A84600223146404649
:10311000FFF78AF8022000900125CDE901546946A5
:1031200038460394FEF790FF0096CDE901546946B6
:1031300040460394FEF788FF06B0BDE8F08100002A
:10314000303802400000024000040240104810B530
:103150000E4901604FF48271416000218160C160BD
:103160004FF400720161C0E905121022C0E9072185
:10317000416281620A21C162FFF7AEFB002803D0E1
:10318000BDE81040FEF7B6BE10BD0000003800409C
:10319000140000200C4810B50A4901604FF4E131D9
:1031A0004160002181600C22C160C0E9041281618C
:1031B000C161FFF7BEFE002803D0BDE81040FEF756
:1031C00099BE10BD004400406C000020FEE7FEE701
:1031D0007047F8B5044640684FF48273984221D195
:1031E000A0684FF48065B0F5004F01D0A8420AD125
:1031F0002068066826F0400606606068984211D193
:10320000A068A8420ED000920B46002280212046E2
:1032100000F044F8002804D0606D40F020006065A4
:103220000320F8BD00920B4600220121EFE70000C9
:10323000F8B515460E460B460092044601220221BF
:1032400000F02CF8A0B9134813490068B0FBF1F066
:103250004FF47A71484300906068B0F5827F0DD1D9
:103260003346002280212046009500F017F870B107
:10327000606D40F0200060650320F8BD009830B11B
:10328000401E009020688068C0430006F6D50020EC
:10329000F8BD00001000002000366E012DE9F84353
:1032A0001E46914688460446089DFEF7C3FF401B14
:1032B000351AFEF7BFFF074626480068C0F3CB303B
:1032C00068430AE0701C09D0FEF7B4FFC01BA84297
:1032D0000FD275B10098B8B3401E00902068816885
:1032E00038EA010033D000214945EBD10020BDE888
:1032F000F8832068416821F0E00141606068B0F522
:10330000827F0BD1A068B0F5004F02D0B0F5806F7E
:1033100004D12068016821F040010160A06AB0F585
:10332000005F09D12068016821F400510160206824
:10333000016841F400510160012084F8510000202F
:1033400084F850000320D2E7FFE70025C6E70121FB
:10335000CAE70000100000207047FEF771BF0000B0
:1033600030B593B030216846FDF7EBF814210CA876
:10337000FDF7E7F81D480025016841F08051016024
:10338000006800F0805011901948016821F4404114
:1033900041F4004101600068022400F440401190B3
:1033A00001200090000401908001CDE90640042036
:1033B00008905420CDE9090407200B906846FFF7D8
:1033C000BBF808B172B6FEE70CA90F2081E8310006
:1033D0004FF48050CDE90F0502210CA8FEF7BCFF89
:1033E000002801D072B6FEE713B030BD403802406D
:1033F000007000400248016841F4700101607047AC
:1034000088ED00E001680C3151E8002F22F4907241
:1034100041E80023002BF5D10168143151E8002F59
:1034200022F0010241E80023002BF5D1016B0129B4
:1034300009D101680C3151E8002F22F0100241E857
:103440000023002BF5D1202180F8421000210163D8
:103450007047000070B5044600680169E26821F415
:103460004051114301612169A068E2690843616923
:10347000114308432168CA6849F20C639A43024326
:10348000CA6020684169A26921F440711143416119
:1034900031492068884202D03049884202D1FFF782
:1034A0000BF801E0FEF7F8FFE2690023192164251B
:1034B0003226B2F5004F626828D0A0FB0101930FBD
:1034C0009200FCF74AFF0146B0FBF5F06FF01802DE
:1034D000504301EB800006EB0010B0FBF5F000F06C
:1034E000F002B1FBF5F002EB0012B1FBF5F06FF06A
:1034F0001803584301EB800006EB0010B0FBF5F019
:1035000000F00F0021681044886070BDA0FB01012D
:1035100092185B41FCF721FF0146B0FBF5F0020178
:10352000B1FBF5F06FF01803584301EB800006EB98
:10353000C000B0FBF5F000F0F80002EB4002B1FB78
:10354000F5F0584301EB800006EBC000B0FBF5F04E
:1035500000F00700D6E70000001001400014014011
:103560002DE9F843984617460D460446089E24E088
:10357000701C22D0FEF75EFEA0EB0800B0421AD805
:10358000CEB12068C168490717D5802D15D0402DD0
:1035900013D00168C94309070FD4016800254068AA
:1035A00000902046FFF72EFF0820606484F840500A
:1035B0000120BDE8F8830320FBE72068006835EAB6
:1035C000000004D00020B842D2D00020F1E7012052
:1035D000F9E7FEE703B401984100009850EAC120E2
:1035E00018BF04204A0D18BF40F0010040F2FF72DE
:1035F000B2EB515F08BF40F00200012808BF052070
:1036000002B070470907090E002804DB00F1E02032
:1036100080F80014704700F00F0000F1E02080F8FF
:10362000141D704730380A2801D20120704700204D
:10363000704770472DE9F04F0F46044690F8201070
:103640008FB03D0E00200DF12C0B4EF618780126A0
:103650004FF0040A99B10A900790089009900590DC
:103660000690814603900490009001900290002300
:1036700004220621204600F095FCB0B934E1E17F38
:1036800000297DD00A900790089009900590069037
:103690008146039004900090019002900023012243
:1036A0000621204600F07EFC10B1DAA061699BE0A3
:1036B000207F10B101284ED087E0618B41452FD388
:1036C0008DF82C50CDE90769CDE90996CDF80C901D
:1036D000CDF81090CDE9059B4D46CDF80090CDF882
:1036E000049000230122C5212046CDF8089000F067
:1036F00059FC10B1CFA0616976E00A95079508954D
:103700000995059506950395049500950195002367
:10371000012206212046029500F044FC0028C4D175
:10372000CDF82890CDF82090CDF82490CDF81490C5
:10373000CDF81C90CDF80C90CDF810900321CDF869
:1037400018900096CDE9011901223B4620211DE089
:10375000C4A0616948E0618B414536D3CDF8209023
:10376000CDF82490CDF828900122CDF81C90CDF80A
:103770000C90CDF81090CDF814903B46202100E03D
:1037800037E0CDF818900096CDE901A9204600F069
:1037900009FC0028DCD14FF4C8774D460DF1340800
:1037A000CDE908860595079506950095039504953E
:1037B000019500230122052120460A96029500F07A
:1037C000F1FB28B1B0A061690EE0B7A061690BE020
:1037D0009DF83400C0077CD00120E1687F1E884737
:1037E000002FDDD16169B9A0884701200FB0BDE885
:1037F000F08F06218DF82C108346009000230122C3
:103800000BA9204600F060FD002888D1207FC7F377
:10381000074AC7F30729FFB290B30128D5D1618BBE
:103820004145D2D320208DF82C008DF82D508DF8F5
:103830002EA000238DF82F908DF830700522CDF842
:1038400000B00BA9204600F03FFD002880D14FF4C6
:10385000C87505278DF82C700DAB01220BA92046E9
:10386000009600F031FD0028ACD19DF83400C0076F
:1038700037D00120E1686D1E8847002DEAD1B1E7FD
:10388000FFE7618B41451CD3C5208DF82C008DF8D6
:103890002D505D46002302220BA92046CDF800B032
:1038A00000F012FD00287FF425AF06208DF82C00D3
:1038B000002301220BA92046009500F005FD0028F9
:1038C000A3D120208DF82C008DF82DA08DF82E90FE
:1038D00000E09BE000238DF82F700422CDF800B0AB
:1038E000AFE7002DCBD093E0207FE8B3012895D13E
:1038F000618B414595D3CDF82890CDF82090CDF837
:103900002490CDF81490CDF81C90CDF80C90CDF803
:103910001090CDF800A0CDF81890CDE901A93B4654
:1039200004222021204600F03DFB00288ED1B04625
:103930004FF4C8774D460DAE07A8002380E8600518
:10394000059506950395049500950195042205219A
:103950002046029500F026FB002885D19DF8340012
:10396000C00753D0012000E005E0E1687F1E8847D2
:10397000002FE1D136E7618B41452FD38DF82C50D4
:10398000CDE90769CDE9099ACDF80C90CDF81090F2
:10399000CDE9059B4D46CDF80090CDF8049000236D
:1039A0000422C5212046CDF8089000F0FBFA00283B
:1039B0007FF4A0AE0A95079508950995059506959B
:1039C00003950495009501950023042206212046C5
:1039D000029500F0E7FA00287FF467AECDF8289052
:1039E000CDF82090CDF82490CDF814900321CDF897
:1039F0001C90CDF80C90CDF81090CDF800A0CDF82B
:103A00001890CDE901193B4604228AE7002FB1D076
:103A10000020EBE67732357178783A207772697456
:103A20006520656E61626C65206661696C65642EF7
:103A30000A0000007732357178783A20777269741D
:103A40006520657874656E646564206164647220C5
:103A50007265676973746572206661696C65642E4E
:103A60000A0000007732357178783A207365637404
:103A70006F7220657261736520346B206661696CBA
:103A800065642E0A000000007732357178783A209C
:103A90006765742073746174757331206661696C35
:103AA00065642E0A000000007732357178783A207C
:103AB00061646472657373206D6F6465206973203F
:103AC000696E76616C69642E0A0000007732357188
:103AD00078783A20736563746F72206572617365DC
:103AE00020346B2074696D656F75742E0A000000B8
:103AF0002DE9F04F8946044690F8201000208DB043
:103B00001F4690464EF6187A4FEA1965012699B17C
:103B10000A900790089009900590069083460390BC
:103B20000490009001900290002304220621204678
:103B300000F038FAB0B938E1E17F00297CD00A9072
:103B40000790089009900590069083460390049092
:103B5000009001900290002301220621204600F0EF
:103B600021FA10B1DAA06169D4E0207F10B10128F8
:103B700042D082E0618B514530D38DF82C50CDE995
:103B8000076BCDE909B60BA8CDF80CB0CDF810B095
:103B9000CDE905B05D46CDF800B0CDF804B0002306
:103BA0000122C5212046CDF808B000F0FBF910B184
:103BB000CFA06169AEE00A9507950895099505952E
:103BC0000695039504950095019500230122062191
:103BD0002046029500F0E6F90028C3D1CDE9077B25
:103BE000CDE909B65846CDF80CB00321CDF810B098
:103BF0000FE0CBA061698DE0618B51453DD3CDE9EC
:103C0000077BCDE909B65846CDF80CB00421CDF8B4
:103C100010B00096CDE90508CDE901104B46012210
:103C20000221204600F0BEF90028E2D14FF4967739
:103C30005D460DF1300800E022E0CDE908860595EB
:103C4000079506950095039504950195002301229B
:103C5000052120460A96029500F0A4F90028C8D153
:103C60009DF83000C0077CD00A2021697F1E88475C
:103C7000002FE0D1B2A061694CE0B9A0616949E0D0
:103C8000002006218DF82C100346009001220BA97C
:103C9000204600F019FB00289FD1C9F30740217F7F
:103CA0000290C9F3072B04F1210009F0FF090190EC
:103CB000A9B30129E1D1618B5145DED3022084F8FB
:103CC000210084F82250029884F8230084F824B05C
:103CD00084F825903A46414604F12600FCF7ECFBB7
:103CE000002003467A1D00902046019900F0ECFA6E
:103CF00000289AD14FF496755FF005078DF82C7067
:103D00000CAB01220BA92046009600F0DDFA48B367
:103D100061699CA0884701200DB0BDE8F08FFFE7E6
:103D2000618B51451BD3C5208DF82C008DF82D508B
:103D300000252B4602220BA92046009500F0C4FA6C
:103D400000287FF435AF06208DF82C0000230122D7
:103D50000BA92046009500F0B7FA00289CD102205C
:103D600001E0B0E013E084F82100029884F822001A
:103D700084F823B084F824903A46414604F12500A3
:103D8000FCF79AFB002003463A1D0090ACE79DF833
:103D90003000C00706D00A2021696D1E8847002D1B
:103DA000ACD167E7002DFCD08FE0207FF0B3012875
:103DB0007FF4DFAE618B5145FFF4DBAECDE9077BCD
:103DC0000421CDE909B1CDF80CB0CDF810B00091C7
:103DD000CDE905B8CDE9011B4B460A460221204634
:103DE00000F0E0F8002884D1B1464FF496775D46A4
:103DF0004FF004080CAE07A8CDF8288080E86002D8
:103E000005950695039504950095019500230422D8
:103E100005212046029500F0C5F80028E3D19DF861
:103E20003000C0074FD00A207F1E00E004E0216967
:103E30008847002FDFD11DE7618B514531D38DF8C5
:103E40002C50CDE9076B0420CDE909B00BA8CDF8C3
:103E50000CB0CDF810B0CDE905B05D46CDF800B09E
:103E6000CDF804B000230422C5212046CDF808B0C7
:103E700000F098F800287FF49BAE0A950795089506
:103E800009950595069503950495009501950023E0
:103E9000042206212046029500F084F800287FF4D1
:103EA00061AECDE9077B0421CDE909B1CDF80CB0B5
:103EB000CDF810B00091CDE905B80322CDE9012B72
:103EC0004B460A468AE7002FB5D0002024E70000C1
:103ED0007732357178783A20777269746520656E2B
:103EE00061626C65206661696C65642E0A00000081
:103EF0007732357178783A20777269746520657801
:103F000074656E64656420616464722072656769BB
:103F100073746572206661696C65642E0A00000026
:103F20007732357178783A20706167652070726FEA
:103F30006772616D206661696C65642E0A0000001D
:103F40007732357178783A20706167652070726FCA
:103F50006772616D2074696D656F75742E0A00005B
:103F60007732357178783A206164647265737320B2
:103F70006D6F646520697320696E76616C69642E6B
:103F80000A0000007732357178783A20676574202E
:103F900073746174757331206661696C65642E0A8F
:103FA000000000002DE9FF4F8BB09B469646DDE9EF
:103FB000217CDDE91F56DDE91D34DDE91B12DDE959
:103FC0001998CDE90098CDE90212DDF860A0CDE99D
:103FD0000434CDE90656CDE9087C846853465A4638
:103FE00071460C98A047002800D001200FB0BDE812
:103FF000F08F00002DE9F04F9146044690F8202004
:104000000F0E8DB088461E464EF618704FF0010A0E
:1040100000254FF0040B2AB1217F00297ED0012911
:104020007DD05EE0E17F0029217F61D011B10129BF
:1040300041D056E0618B81422CD30A9507950895B3
:10404000099505950695039504950095019500231E
:104050000122062120460295FFF7A4FF10B176A0A9
:10406000616940E08DF82C70CDE907A5CDE9095ACA
:104070000BA803950495CDE9055000950195002303
:104080000122C52120460295FFF78CFF10B172A0D6
:10409000616928E0CDE907590821CDE9045103956C
:1040A0000695CDE9096A0321504643460122AAE05C
:1040B00075A0616917E0618B814212D3CDE9075980
:1040C0000821CDE9045103950695CDE9093A01226D
:1040D00043460B210295CDE900AB2046FFF762FF76
:1040E00029E061696FA0884701200DB0BDE8F08F1D
:1040F000C8F3074BC8F3072A08F0FF08F1B10129FC
:10410000EFD1618B8142ECD30B208DF82C008DF820
:104110002D708DF82EB08DF82FA001E03AE076E0FA
:104120008DF8308000938DF831504B4606220BA954
:10413000204600F0C9F80028BAD1D6E7618B814249
:1041400019D306208DF82C00002301220BA920464C
:10415000009500F0B9F8002881D1C5208DF82C0019
:104160008DF82D70002302220BA92046009500F047
:10417000ABF800288BD10B208DF82C008DF82DB0DA
:104180008DF82EA08DF82F808DF830504B460522EB
:104190000096CCE7618B814228D30A950795089554
:1041A00009950595069503950495009501950023BD
:1041B0000422062120460295FFF7F4FE0028CBD109
:1041C0008DF82C70CDE907A5CDE9095B0BA8039507
:1041D0000495CDE905500095019500230422C521E1
:1041E00020460295FFF7DEFE0028C3D1CDE9096B1A
:1041F000CDE90759A17F5846CDE904510321039524
:104200004346042206958DE823000B2165E7618B68
:104210008142FFF406AFCDE9093BCDE90759A17F03
:104220000395CDE90451CDF800B00695CDE901B56F
:10423000042243460B2150E77732357178783A20D3
:10424000777269746520656E61626C65206661696C
:104250006C65642E0A0000007732357178783A2058
:10426000777269746520657874656E646564206131
:10427000646472207265676973746572206661692F
:104280006C65642E0A0000007732357178783A2028
:10429000666173742072656164206661696C65642F
:1042A0002E0A00007732357178783A2061646472A2
:1042B000657373206D6F646520697320696E766124
:1042C0006C69642E0A00000030B58BB00DF1180C3B
:1042D00001250E9C8CE83C000022CDE904210292CD
:1042E0000392009201928468134611461046A0473B
:1042F000002800D001200BB030BD00002DE9F047B0
:104300008146C8B2C0F580741D4690460E46A34251
:1043100000D8ACB24FF48077234642463146484637
:10432000FFF7E6FB30B1D9F8141009A08847012047
:10433000BDE8F087A54208D02D1BA0442644BD420D
:1043400001D93C46E8E7ACB2E6E70020F0E7000020
:104350007732357178783A20706167652070726FB6
:104360006772616D206661696C65642E0A000000E9
:1043700013B5FF23012269460248FEF741FE00986B
:104380001CBD00006C000020FDF762FFFEF7E8FF97
:10439000FEF788FEFEF7FEFEFEF7D8FE00224EF680
:1043A00016741146204607F01BF9002211462046DC
:1043B00005F040FAFEE700002DE9F04F8FB00F4600
:1043C000040006D0207E012805D003200FB0BDE8F0
:1043D000F08F0220FAE7780404D06169F5A08847DD
:1043E0000420F3E794F820103D0E00200DF12C0B73
:1043F0004EF6187801264FF0040A99B10A900790FA
:1044000008900990059006908146039004900090D2
:10441000019002900023042206212046FFF7C2FDEE
:10442000B0B931E1E17F00297DD00A900790089072
:1044300009900590069081460390049000900190A9
:1044400002900023012206212046FFF7ABFD10B1A8
:10445000DFA061698BE0207F10B101284ED006E219
:10446000618B41452FD38DF82C50CDE90769CDE9FB
:104470000996CDF80C90CDF81090CDE9059B4D46EE
:10448000CDF80090CDF8049000230122C5212046EC
:10449000CDF80890FFF786FD10B1D5A0616966E000
:1044A0000A95079508950995059506950395049530
:1044B0000095019500230122062120460295FFF771
:1044C00071FD0028C4D1CDF82890CDF82090CDF80A
:1044D0002490CDF81490CDF81C90CDF80C90CDF828
:1044E00010900321CDF818900096CDE90119012212
:1044F0003B4652211DE0CAA0616938E0618B41450D
:10450000ADD3CDF82090CDF82490CDF8289001229D
:10451000CDF81C90CDF80C90CDF81090CDF81490FB
:104520003B46522100E033E0CDF818900096CDE9EB
:1045300001A92046FFF736FD0028DCD14FF4C867FB
:104540004D460DF13408CDE9088605950795069589
:10455000009503950495019500230122052120462D
:104560000A960295FFF71EFD20B16169B5A0884744
:1045700001202BE79DF83400C00706D00120E16838
:104580007F1E8847002FDED112E1002FFCD079E09A
:1045900006218DF82C1083460090002301220BA9E0
:1045A0002046FFF791FE00288CD1207FC7F3074AF1
:1045B000C7F30729FFB210B101282ED057E1618B54
:1045C00041451CD3C5208DF82C008DF82D505D463B
:1045D000002302220BA92046CDF800B0FFF774FE9D
:1045E00000287FF45AAF06208DF82C00002301220A
:1045F0000BA920460095FFF767FE0028D4D1522072
:104600008DF82C008DF82DA08DF82E9000238DF8BC
:104610002F700422CDF800B011E0618B414537D3F3
:1046200052208DF82C008DF82D508DF82EA00023EF
:104630008DF82F908DF830700522CDF800B00BA9C1
:104640002046FFF741FE00287FF455AF4FF4C865C0
:104650005FF005078DF82C700DAB01220BA92046E9
:104660000096FFF731FE00287FF47FAF9DF83400FD
:10467000C00706D00120E1686D1E8847002DE9D1F2
:1046800096E0EDB30020A1E6207F10B101284CD0C8
:10469000EDE0618B41452ED38DF82C50CDE90769B3
:1046A000CDE9099ACDF80C90CDF81090CDE9059B95
:1046B0004D46CDF80090CDF8049000230422C5218A
:1046C0002046CDF80890FFF76DFC002889D10A95A7
:1046D0000795089509950595069503950495009508
:1046E000019500230422062120460295FFF75AFC7B
:1046F00000287FF4ADAECDF81C90CDF8209000E0FE
:1047000056E0CDF82890CDF82490CDF814900321F0
:10471000CDF80C90CDF81090CDF800A0CDF8189001
:10472000CDE901193B46042218E0618B414540D395
:10473000CDF82890CDF82090CDF82490CDF81490A5
:10474000CDF81C90CDF80C90CDF81090CDF800A0CD
:10475000CDF81890CDE901A93B460422522120460C
:10476000FFF720FC00287FF4C6AEB0464FF4C867C0
:104770004D460DAE07A8002380E860050595069517
:104780000395049500950195042205212046029584
:10479000FFF708FC00287FF4E8AE9DF83400C0075E
:1047A0003FF4F3AE0120E1687F1E8847002FE1D17E
:1047B00058E05CE07732357178783A206164647251
:1047C00020697320696E76616C69642E0A000000AE
:1047D0007732357178783A20777269746520656E22
:1047E00061626C65206661696C65642E0A00000078
:1047F0007732357178783A207772697465206578F8
:1048000074656E64656420616464722072656769B2
:1048100073746572206661696C65642E0A0000001D
:104820007732357178783A20626C6F636B206572ED
:104830006173652033326B206661696C65642E0A92
:10484000000000007732357178783A20676574206F
:1048500073746174757331206661696C65642E0AC6
:1048600000000000616904A088470620AEE5616988
:104870000AA088470520A9E57732357178783A2073
:10488000626C6F636B2065726173652033326B20DD
:1048900074696D656F75742E0A000000773235718A
:1048A00078783A2061646472657373206D6F646513
:1048B00020697320696E76616C69642E0A000000BD
:1048C0002DE9F04F8FB00F46040006D0207E01285E
:1048D00005D003200FB0BDE8F08F0220FAE73804BE
:1048E000000C04D06169F6A088470420F2E794F830
:1048F00020103D0E00200DF12C0B4EF618780126ED
:104900004FF0040A99B10A90079008900990059019
:10491000069081460390049000900190029000233D
:10492000042206212046FFF73DFBB0B92FE1E17FCD
:1049300000297DD00A900790089009900590069074
:104940008146039004900090019002900023012280
:1049500006212046FFF726FB10B1E0A061698BE03D
:10496000207F10B101284ED014E2618B41452FD336
:104970008DF82C50CDE90769CDE90996CDF80C905A
:10498000CDF81090CDE9059B4D46CDF80090CDF8BF
:10499000049000230122C5212046CDF80890FFF79E
:1049A00001FB10B1D5A0616966E00A9507950895ED
:1049B00009950595069503950495009501950023A5
:1049C0000122062120460295FFF7ECFA0028C4D107
:1049D000CDF82890CDF82090CDF82490CDF8149003
:1049E000CDF81C90CDF80C90CDF810900321CDF8A7
:1049F00018900096CDE9011901223B46D8211DE00F
:104A0000CAA0616938E0618B4145ADD3CDF82090F3
:104A1000CDF82490CDF828900122CDF81C90CDF847
:104A20000C90CDF81090CDF814903B46D82100E0C2
:104A300033E0CDF818900096CDE901A92046FFF7A4
:104A4000B1FA0028DCD14FF4FA674D460DF1340875
:104A5000CDE908860595079506950095039504957B
:104A6000019500230122052120460A960295FFF7B1
:104A700099FA20B16169B6A0884701202AE79DF81C
:104A80003400C00706D00120E1687F1E8847002F50
:104A9000DED10FE1002FFCD077E006218DF82C103D
:104AA00083460090002301220BA92046FFF70CFC4F
:104AB00000288CD1207FC7F3074AC7F30729FFB22C
:104AC00010B101282ED065E1618B41451CD3C52072
:104AD0008DF82C008DF82D505D46002302220BA985
:104AE0002046CDF800B0FFF7EFFB00287FF45AAF67
:104AF00006208DF82C00002301220BA920460095EA
:104B0000FFF7E2FB0028D4D1D8208DF82C008DF8D7
:104B10002DA08DF82E9000238DF82F700422CDF853
:104B200000B011E0618B414535D3D8208DF82C00C1
:104B30008DF82D508DF82EA000238DF82F908DF834
:104B400030700522CDF800B00BA92046FFF7BCFB62
:104B500000287FF455AF4FF4FA6505278DF82C70C7
:104B60000DAB01220BA920460096FFF7ADFB0028F4
:104B700080D19DF83400C00706D00120E1686D1E89
:104B80008847002DEAD195E0F5B30020A2E6207F0A
:104B900010B101284BD0FDE0618B41452DD38DF83C
:104BA0002C50CDE90769CDE9099ACDF80C90CDF8E4
:104BB0001090CDE9059B4D46CDF80090CDF80490BE
:104BC00000230422C5212046CDF80890FFF7EAF91A
:104BD00000288BD10A9507950895099505950695A6
:104BE0000395049500950195002304220621204693
:104BF0000295FFF7D7F9002885D1CDF81C90CDF8A4
:104C00002090CDF8249000E054E0CDF82890CDF825
:104C100014900321CDF80C90CDF81090CDF800A0A1
:104C2000CDF81890CDE901193B46042218E0618BBC
:104C3000414544D3CDF82890CDF82090CDF824906C
:104C4000CDF81490CDF81C90CDF80C90CDF81090C4
:104C5000CDF800A0CDF81890CDE901A93B4604227B
:104C6000D8212046FFF79EF900287FF4C9AEB04650
:104C70004FF4FA674D460DAE07A8002380E86005A3
:104C80000595069503950495009501950422052147
:104C900020460295FFF786F900287FF4EBAE9DF8D9
:104CA0003400C0073FF4F6AE0120E1687F1E88475C
:104CB000002FE1D161692EA0884706200AE669E04D
:104CC0007732357178783A20616464722069732094
:104CD000696E76616C69642E0A0000007732357166
:104CE00078783A20777269746520656E61626C65C8
:104CF000206661696C65642E0A00000077323571A8
:104D000078783A20777269746520657874656E6486
:104D1000656420616464722072656769737465728A
:104D2000206661696C65642E0A0000007732357177
:104D300078783A20626C6F636B20657261736520CE
:104D400036346B206661696C65642E0A00000000D1
:104D50007732357178783A2067657420737461749E
:104D6000757331206661696C65642E0A000000006D
:104D70007732357178783A20626C6F636B20657298
:104D80006173652036346B2074696D656F75742EA0
:104D90000A000000616902A0884705209AE500002A
:104DA0007732357178783A20616464726573732064
:104DB0006D6F646520697320696E76616C69642E1D
:104DC0000A0000002DE9F0438FB0040006D0207ED9
:104DD000012805D003200FB0BDE8F0830220FAE7D8
:104DE00094F82000694E002501270DF12C0990B19F
:104DF0000A950795089509950595069503950495D7
:104E00000095019500230422062120460295FFF714
:104E1000C9F8A8B982E0E07F002850D00A9507952C
:104E200008950995059506950395049500950195B6
:104E300000230122062120460295FFF7B3F810B1A6
:104E400053A0616929E00A9507950895099505958C
:104E50000695039504950095019500230122C7212D
:104E600020460295FFF79EF810B151A0616914E049
:104E7000C846CDE9088705950795069500950395E1
:104E80000495019500230122052120460A970295E9
:104E9000FFF788F820B161694CA0884701209AE7A4
:104EA0009DF82C00C00706D00120E168761E8847D7
:104EB000002EDED165E0002E63D000208BE70620B7
:104EC0008DF83000002301220CA920460095FFF741
:104ED000FBF90028B4D1C7208DF83000002301224F
:104EE0000CA920460095FFF7EFF90028BDD1052554
:104EF0008DF830500BAB01220CA920460097FFF72C
:104F0000E3F90028C7D19DF82C00C007D3D00120B9
:104F1000E168761E8847002EEAD132E00A950795AF
:104F200008950995059506950395049500950195B5
:104F300000230422C72120460295FFF733F80028FA
:104F400093D1B8464F464FF0040907A8002380E8E4
:104F5000A0030595069503950495009501950422F7
:104F6000052120460295FFF71DF8002893D19DF8F2
:104F70002C00C0079FD00120E168761E8847002ED4
:104F8000E3D1616919A08847042024E740420F005B
:104F90007732357178783A20777269746520656E5A
:104FA00061626C65206661696C65642E0A000000B0
:104FB0007732357178783A2063686970206572615C
:104FC0007365206661696C65642E0A0077323571FD
:104FD00078783A2067657420737461747573312032
:104FE0006661696C65642E0A0000000077323571D5
:104FF00078783A2065726173652074696D656F75A4
:10500000742E0A0030B58DB0050005D0287E012829
:1050100004D003200DB030BD0220FBE795F820003E
:105020000024A0B10A940794089409940594069466
:10503000039404940094019400230422FF21284641
:105040000294FEF7AFFF30B319A069692DE0E87F45
:1050500088B10A94079408940994059406940394DB
:1050600004940094019400230122B921284602945B
:10507000FEF798FF09E0B9208DF82C0000230122EB
:105080000BA928460094FFF71FF940B1696910A0E9
:1050900088470420BEE7E9680A208847D9E768689E
:1050A00080470028B6D0696910A088470120B1E781
:1050B0007732357178783A20657869742071737029
:1050C00069206D6F6465206661696C65642E0A00F5
:1050D0007732357178783A20706F77657220646F17
:1050E000776E206661696C65642E0A0077323571CF
:1050F00078783A20737069206F722071737069201C
:105100006465696E6974206661696C65642E0A0065
:1051100010B58CB0040005D0207E012804D00320F7
:105120000CB010BD0220FBE794F82000002168B10C
:105130000A91079108910991059106910023039125
:10514000049100910191042202910EE0E07F88B168
:105150000A91079108910991059106910023039105
:105160000491009101910122029104212046FEF751
:1051700019FF09E004208DF82C0000910023012282
:105180000BA92046FFF7A0F80028C9D0616902A04A
:1051900088470120C4E700007732357178783A20DB
:1051A00077726974652064697361626C65206661F9
:1051B000696C65642E0A000010B58CB0040005D03F
:1051C000207E012804D003200CB010BD0220FBE794
:1051D00094F82000002168B10A9107910891099183
:1051E00005910691002303910491009101910422FD
:1051F00002910EE0E07F88B10A9107910891099130
:1052000005910691002303910491009101910122DF
:10521000029166212046FEF7C5FE09E066208DF862
:105220002C000091002301220BA92046FFF74CF827
:105230000028C9D0616902A088470120C4E70000A6
:105240007732357178783A20656E61626C652072CC
:1052500065736574206661696C65642E0A000000E0
:1052600010B58CB0040005D0207E012804D00320A6
:105270000CB010BD0220FBE794F82000002168B1BB
:105280000A910791089109910591069100230391D4
:10529000049100910191042202910EE0E07F88B117
:1052A0000A910791089109910591069100230391B4
:1052B0000491009101910122029150212046FEF7B4
:1052C00071FE09E050208DF82C000091002301228E
:1052D0000BA92046FEF7F8FF0028C9D0616902A09B
:1052E00088470120C4E700007732357178783A208A
:1052F000737220777269746520656E61626C6520D7
:105300006661696C65642E0A0000000010B58CB0FF
:10531000040005D0207E012804D003200CB010BD6D
:105320000220FBE794F82000002168B10A91079160
:105330000891099105910691002303910491009130
:105340000191042202910EE0E07F88B10A91079159
:105350000891099105910691002303910491009110
:1053600001910122029106212046FEF71BFE09E071
:1053700006208DF82C000091002301220BA9204665
:10538000FEF7A2FF0028C9D0616902A0884701206A
:10539000C4E700007732357178783A207772697403
:1053A0006520656E61626C65206661696C65642E5E
:1053B0000A00000070B58CB0040005D0207E0128E2
:1053C00004D003200CB070BD0220FBE794F820004D
:1053D000012817D000250A95079508950995059588
:1053E000069503950495009501952B4601223821D9
:1053F00020460295FEF7D6FD48B161691EA0884798
:105400000120DFE7616925A088470420DAE7E16829
:105410000A208847607F8DF82C000120CDE9070520
:105420000426CDE909560BA803950495CDE905504E
:105430000095019500233246C02120460295FEF7D3
:10544000B1FD20B1616922A088470520BAE79DF827
:105450002C000109890709D0C0F30110012807D0E9
:10546000022807D00820A0770020ABE70220FAE747
:10547000A677F9E70620F6E77732357178783A2093
:10548000656E7465722071737069206D6F6465203C
:105490006661696C65642E0A000000007732357120
:1054A00078783A207173706920696E7465726661EC
:1054B00063652063616E2774207573652074686965
:1054C000732066756E6374696F6E2E0A00000000AB
:1054D0007732357178783A2073657420726561642B
:1054E00020706172616D6574657273206661696CAC
:1054F00065642E0A0000000010B58CB0040005D0D1
:10550000207E012804D003200CB010BD0220FBE750
:1055100094F82000002168B10A910791089109913F
:1055200005910691002303910491009101910422B9
:1055300002910EE0E07F88B10A91079108910991EC
:10554000059106910023039104910091019101229C
:1055500002917A212046FEF725FD09E07A208DF898
:105560002C000091002301220BA92046FEF7ACFE7F
:105570000028C9D0616902A088470120C4E7000063
:105580007732357178783A20657261736520707270
:105590006F6772616D20726573756D6520666169F4
:1055A0006C65642E0A00000010B58CB0040005D0B4
:1055B000207E012804D003200CB010BD0220FBE7A0
:1055C00094F82000002168B10A910791089109918F
:1055D0000591069100230391049100910191042209
:1055E00002910EE0E07F90B10A9107910891099134
:1055F00005910691002303910491009101910122EC
:10560000029175212046FEF7CDFC60B9D4E77520E4
:105610008DF82C000091002301220BA92046FEF7F3
:1056200053FE0028C8D0616901A088470120C3E764
:105630007732357178783A206572617365207072BF
:105640006F6772616D2073757370656E642066613B
:10565000696C65642E0A00002DE9F0438FB00F4697
:10566000040006D0207E012805D003200FB0BDE83D
:10567000F0830220FAE794F8200020B1616967A066
:1056800088470520F2E7E07F002501264EF61878CE
:1056900042F21079002864D00A950795089509957B
:1056A0000595069503950495009501950023012223
:1056B000062120460295FEF775FC10B161A06169D4
:1056C0003FE0207F3B0210B101280DD098E0089503
:1056D00009950A9507950395049505950320069568
:1056E0000EE060A061692CE0618B41454AD30895CA
:1056F00009950A9507950395049505950420069547
:105700000096CDE90105012244212046FEF74AFC1E
:105710000028E6D14F460DF12C08CDE90886059505
:1057200007950695009503950495019500230122A0
:10573000052120460A960295FEF734FC20B16169E6
:1057400053A08847012091E79DF82C00C00706D0A0
:105750000A2021697F1E8847002FDED158E0EFB371
:1057600054E006208DF83000002301220CA92046C9
:105770000095FEF7A9FD0028A0D1207F442110B19B
:1057800001280CD03CE08DF830108DF831508DF8A8
:10579000327000238DF83350042200950FE0628BA5
:1057A00042452DD38DF830108DF831508DF83250A0
:1057B00000238DF833708DF83450052200950CA924
:1057C0002046FEF781FD00288BD14D465FF005078E
:1057D0008DF830700BAB01220CA900E018E02046D8
:1057E0000096FEF771FD0028A9D19DF82C00C00796
:1057F0000BD00A2021696D1E8847002DE8D107E0F3
:1058000061692BA08847042030E70DB100202DE707
:10581000616930A08847062028E70000773235719B
:1058200078783A20717370692063616E27742075EF
:10583000736520746869732066756E6374696F6E32
:105840002E0A00007732357178783A2077726974C1
:105850006520656E61626C65206661696C65642EA9
:105860000A0000007732357178783A2065726173EA
:1058700065207365637572697479207265676973F1
:10588000746572206661696C65642E0A0000000010
:105890007732357178783A20676574207374617453
:1058A000757331206661696C65642E0A0000000022
:1058B0007732357178783A20616464726573732049
:1058C0006D6F646520697320696E76616C69642E02
:1058D0000A0000007732357178783A20657261737A
:1058E0006520736563757269747920726567697381
:1058F0007465722074696D656F75742E0A000000FE
:1059000010B58CB0040005D0207E012804D00320FF
:105910000CB010BD0220FBE794F82000C0B10021BC
:105920000A910791089109910591069103910491BB
:10593000009101910B4602910422FF212046FEF7BF
:1059400031FB0028E4D0616904A088470120DFE72B
:1059500061690AA088470420DAE7000077323571D0
:1059600078783A20657869742071737069206D6F5A
:105970006465206661696C65642E0A007732357152
:1059800078783A2073706920696E74657266616315
:10599000652063616E277420757365207468697370
:1059A0002066756E6374696F6E2E0A002DE9F04FE4
:1059B0008DB09146884604001E4606D0207E012800
:1059C00005D003200DB0BDE8F08F0220FAE794F86F
:1059D00020204EF618704FEA18674FF0010A002594
:1059E0004FF0040B2AB1217F00297DD001297CD002
:1059F00004E1E17F0029217F5CD011B1012943D06E
:105A0000FCE0618B81422CD30A9507950895099596
:105A100005950695039504950095019500230122AF
:105A2000062120460295FEF7BDFA10B176A0616905
:105A300027E08DF82C70CDE907A5CDE9095A0BA810
:105A400003950495CDE905500095019500230122A9
:105A5000C52120460295FEF7A5FA10B172A0616932
:105A60000FE0CDE907590821CDE9045103950695CA
:105A7000CDE9096A0321504643460122A6E0616947
:105A800075A0884701209DE7618B81421BD3CDE93A
:105A900007590821CDE9045103950695CDE9093A46
:105AA000012243460B210295CDE900AB2046FEF7CB
:105AB00079FA4FE0C8F3074BC8F3072A08F0FF084C
:105AC00011B101292FD099E0618B81421CD30620AE
:105AD0008DF82C00002301220BA920460095FEF72B
